S00B00004646542E7372656339
S113000007C100000C94920821C100001FC1000028
S11300101DC100001BC1000019C1000017C1000070
S113002015C1000013C1000011C100000FC1000080
S11300300DC100000BC1000009C1000007C1000090
S11300400C94690803C1000001C10000FFC0000056
S1130050FDC000000C94A908F9C00000F7C000001E
S1130060F5C00000F3C00000F1C00000EFC00000C4
S1130070EDC00000EBC00000E9C00000E7C00000D4
S1130080E5C00000E3C00000E1C0000007634236A1
S1130090B79BD8A71A39685618AEBAAB558C1D3C15
S11300A0B7CC5763BD6DEDFD753EF6177231BF00D9
S11300B00000803F08000000BE922449123EABAA13
S11300C0AA2ABECDCCCC4C3E00000080BEABAAAA6E
S11300D0AA3E00000000BF000000803F00000000B6
S11300E000084178D3BB4387D1133D190E3CC3BDEF
S11300F04282AD2B3E68EC8276BED98FE1A93E4C9C
S113010080EFFFBE01C4FF7F3F00000000006E616E
S11301106E00696E660000407A10F35A00A0724EB9
S113012018090010A5D4E80000E87648170000E498
S11301300B54020000CA9A3B000000E1F5050000E0
S113014080969800000040420F000000A086010045
S11301500000102700000000E80300000000640015
S1130160000000000A000000000001000000000080
S11301702C76D888DC674F0823DFC1DFAE59E1B1A4
S1130180B796E5E3E453C63AE651997696E8E6C2B3
S11301908426EB898C9B62ED407C6FFCEFBC9C9FBA
S11301A040F2BAA56FA5F490055A2AF75C936B6CDC
S11301B0F9676DC11BFCE0E40D47FEF520E6B500D0
S11301C0D0ED902E0300943577050080841E08003E
S11301D000204E0A000000C80C333333330F986EEE
S11301E012831141EF8D2114893BE65516CFFEE6AB
S11301F0DB18D1844B381BF77C1D901DA4BBE42471
S1130200203284725E228100C9F124ECA1E53D27ED
S113021011241FBECFEFD0E1DEBFCDBF11E0A0E0BF
S1130220B1E0ECE3FEE200E00BBF02C007900D92E8
S1130230A831B107D9F72FE0A8E1B1E001C01D92C0
S1130240A533B207E1F7AED70C941C17D9CE3D0AFB
S11302503E0A410A470A4F0A590A660A740A850A7D
S1130260990AAE0AC60AE00AFC0A1B0B3C0B5E0B99
S1130270840BAB0BD50B010C2F0C5F0C910CC60C33
S1130280FD0C360D710DAE0DED0D2F0E720EB80E68
S1130290000F4A0F960FE40F34108610DA10311154
S11302A08911E3113F129D12FD125F13C313291428
S11302B09114FA146615D3154216B31626179A1715
S11302C01018881802197D19FB19791AFA1A7C1B5F
S11302D0FF1B841C0B1D931D1D1EA91E351FC41F4F
S11302E05320E42077210B22A0223723CE23682435
S11302F002259E253B26D92678271828BA285C296A
S1130300002AA52A4A2BF12B992C422DEB2D962E4F
S1130310412FED2F9A304831F631A6325633063448
S1130320B8346A351C36CF3683373738EC38A139C0
S1130330573A0D3BC33B7A3C313DE93DA03E583F23
S11303401040C94081413A42F342AC4365441E45E2
S1130350D745904648470148BA4872492B4AE34A70
S11303609B4B534C0A4DC14D784E2F4FE54F9A503D
S11303704F510452B8526C531F54D25484553556BD
S1130380E65696574558F458A1594E5AFA5AA65B60
S1130390505CFA5CA25D4A5EF15E975F3B60DF6091
S11303A082612362C362636301649E643965D465B8
S11303B06D6605679B673168C4685769E869786A40
S11303C0066B936B1E6CA86C306DB76D3C6EC06E83
S11303D0426FC26F4170BE703971B3712B72A172DA
S11303E016738873F9736874D6744175AB75127695
S11303F07876DC763E779E77FC775878B3780B79FD
S11304006179B579077A577AA57AF17A3B7B837B50
S1130410C97B0C7C4E7C8D7CCB7C067D3F7D757DC1
S1130420AA7DDC7D0D7E3B7E677E907EB87EDD7E80
S1130430007F217F3F7F5B7F757F8D7FA37FB67FAA
S1130440C77FD67FE27FEC7FF47FFA7FFD7FFE7F5C
S1130450FD7FFA7FF47FEC7FE27FD67FC77FB67F94
S1130460A37F8D7F757F5B7F3F7F217F007FDD7E54
S1130470B87E907E677E3B7E0D7EDD7DAA7D757D98
S11304803F7D067DCB7C8D7C4E7C0D7CC97B837B44
S11304903B7BF17AA57A577A077AB57961790B793A
S11304A0B3785878FC779E773E77DC767876127648
S11304B0AB754175D6746874F97388731673A17239
S11304C02B72B3713971BE704170C26F426FC06ECE
S11304D03C6EB76D306DA86C1E6C936B066B786ABE
S11304E0E8695769C46831689B6705676D66D465B8
S11304F039659E6401646363C36223628261DF6061
S11305003B60975FF15E4A5EA25DFA5C505CA65B5D
S1130510FB5A4E5AA159F45845589657E656355643
S11305208455D2541F546C53B85204524F519A50AC
S1130530E54F2F4F784EC14D0A4D534C9B4BE34A28
S11305402B4A7349BA48014849479046D7451E4546
S11305506544AC43F3423A428141C9401140583F9B
S1130560A03EE93D313D7A3CC33B0D3B573AA139AE
S1130570EC3837388337CF361C366A35B83406340E
S11305805633A632F63148319A30ED2F412F962E4C
S1130590EB2D422D992CF12B4B2BA52A002A5C29FB
S11305A0BA2818287827D9263B269E2502256824B0
S11305B0CF233723A0220B227721E4205320C41F0A
S11305C0351FA91E1D1E931D0B1D841CFF1B7C1BA8
S11305D0FA1A791AFB197E190219881810189A1731
S11305E02617B3164216D3156615FA149114291456
S11305F0C3135F13FD129D123F12E31189113111D0
S1130600DA1086103410E40F960F4A0F000FB80E5C
S1130610730E2F0EED0DAE0D710D360DFD0CC60CC7
S1130620910C5F0C2F0C010CD50BAB0B840B5E0BE8
S11306303C0B1B0BFC0AE00AC60AAE0A990A850A9F
S1130640740A660A590A4F0A470A410A3E0AFF7F9A
S11306500000FC7F9201F57F2403E87FB604D77F76
S11306604706C17FD907A67F6A09867FFB0A617F97
S11306708B0C377F1B0E087FAB0FD47E39119C7E09
S1130680C7125E7E55141C7EE115D57D6D17897DDC
S1130690F818387D821AE27C0B1C887C931D297C17
S11306A0191FC47B9F205C7B2322EE7AA6237C7ACD
S11306B02725047AA726897926280879A329837807
S11306C01E2BF977982C6B77102ED876862F4076D0
S11306D0FB30A4756D320375DE335E744D35B5732E
S11306E0B9360673243854728C399D71F23AE1702C
S11306F0563C2270B73D5E6F163F956E7340C96DD0
S1130700CD41F86C2543236C7A444A6BCC456C6A22
S11307101C478B696948A568B349BC67FA4ACE6629
S11307203F4CDD65804DE764BF4EEE63FA4FF162E6
S11307303351F0616852EB609A53E25FC954D65E5C
S1130740F455C65D1D57B35C42589C5B6359815A8E
S1130750815A63599C5B4258B35C1D57C65DF4557E
S1130760D65EC954E25F9A53EB606852F06133512C
S1130770F162FA4FEE63BF4EE764804DDD653F4C96
S1130780CE66FA4ABC67B349A56869488B691C47B9
S11307906C6ACC454A6B7A44236C2543F86CCD4192
S11307A0C96D7340956E163F5E6FB73D2270563C1F
S11307B0E170F23A9D718C39547224380673B9365B
S11307C0B5734D355E74DE3303756D32A475FB303D
S11307D04076862FD876102E6B77982CF9771E2BBF
S11307E08378A329087926288979A726047A2725D6
S11307F07C7AA623EE7A23225C7B9F20C47B191F7C
S1130800297C931D887C0B1CE27C821A387DF818A5
S1130810897D6D17D57DE1151C7E55145E7EC7124A
S11308209C7E3911D47EAB0F087F1B0E377F8B0C57
S1130830617FFB0A867F6A09A67FD907C17F4706C5
S1130840D77FB604E87F2403F57F9201FC7F000084
S1130850FE7F6EFEFC7FDCFCF57F4AFBE87FB9F986
S1130860D77F27F8C17F96F6A67F05F5867F75F3B7
S1130870617FE5F1377F56F0087FC7EED47E39ED0E
S11308809C7EABEB5E7E1FEA1C7E93E8D57D08E779
S1130890897D7EE5387DF5E3E27C6DE2887CE7E0E6
S11308A0297C61DFC47BDDDD5C7B5ADCEE7AD9DA3E
S11308B07C7A59D9047ADAD789795DD60879E2D471
S11308C0837868D3F977F0D16B777AD0D87605CF6F
S11308D0407693CDA47522CC0375B3CA5E7447C920
S11308E0B573DCC7067374C654720EC59D71AAC372
S11308F0E17049C22270EAC05E6F8DBF956E33BE4F
S1130900C96DDBBCF86C86BB236C34BA4A6BE4B8A3
S11309106C6A97B78B694DB6A56806B5BC67C1B359
S1130920CE6680B2DD6541B1E76406B0EE63CDAE5C
S1130930F16298ADF06166ACEB6037ABE25F0CAA94
S1130940D65EE3A8C65DBEA7B35C9DA69C5B7FA5EF
S1130950815A64A463594DA342583AA21D572AA14F
S1130960F5551EA0C954159F9A53109E68520F9DA9
S11309703351129CFA4F199BBF4E239A804D3299E2
S11309803F4C4498FA4A5B97B349759669489495E5
S11309901C47B694CC45DD937A440893254337929B
S11309A0CD416B917340A290163FDE8FB73D1F8FF0
S11309B0563C638EF23AAC8D8C39FA8C24384C8CCC
S11309C0B936A28B4D35FD8ADE335C8A6E32C0891E
S11309D0FB302889872F9588102E0788982C7D87CF
S11309E01E2BF886A32977862628FC85A7268485CE
S11309F027251285A623A48423223C849F20D88300
S1130A00191F7883931D1E830B1CC882821A778258
S1130A10F8182B826D17E481E115A28155146481C5
S1130A20C7122C813911F880AB0FC9801B0E9F802F
S1130A308B0C7A80FB0A5A806A093F80D907298087
S1130A4047061880B6040B8024030480920100003A
S1130A5000040002000600010005000300078000F6
S1130A6080048002800680018005800380074000A6
S1130A704004400240064001400540034007C000D6
S1130A80C004C002C006C001C005C003C0072000E6
S1130A902004200220062001200520032007A000B6
S1130AA0A004A002A006A001A005A003A007600066
S1130AB06004600260066001600560036007E00096
S1130AC0E004E002E006E001E005E003E0071000D6
S1130AD010041002100610011005100310079000F6
S1130AE090049002900690019005900390075000A6
S1130AF05004500250065001500550035007D000D6
S1130B00D004D002D006D001D005D003D0073000E5
S1130B103004300230063001300530033007B000B5
S1130B20B004B002B006B001B005B003B007700065
S1130B307004700270067001700570037007F00095
S1130B40F004F002F006F001F005F003F0070800ED
S1130B5008040802080608010805080308078800B5
S1130B608804880288068801880588038807480065
S1130B704804480248064801480548034807C80095
S1130B80C804C802C806C801C805C803C8072800A5
S1130B902804280228062801280528032807A80075
S1130BA0A804A802A806A801A805A803A807680025
S1130BB06804680268066801680568036807E80055
S1130BC0E804E802E806E801E805E803E807180095
S1130BD018041802180618011805180318079800B5
S1130BE09804980298069801980598039807580065
S1130BF05804580258065801580558035807D80095
S1130C00D804D802D806D801D805D803D8073800A4
S1130C103804380238063801380538033807B80074
S1130C20B804B802B806B801B805B803B807780024
S1130C307804780278067801780578037807F80054
S1130C40F804F802F806F801F805F803F8073F92EB
S1130C502F921F930F93DF93CF93DC01EB0199271E
S1130C60EEE4F2E000E012E0259135914D915D91C2
S1130C70B503B0012C031001691FBC03790B300CC0
S1130C80611D791FDA03790B300C611D791F69939B
S1130C907993699379930150104031F7CF91DF91A3
S1130CA00F911F912F903F90112408953F922F92FE
S1130CB05F924F927F926F929F928F92BF92AF9268
S1130CC0DF92CF92FF92EF921F930F93DF93CF9314
S1130CD0FC0181E090E0A0E0B1E004E0809F6001CD
S1130CE0909FD00C7C019F938F93EF01A09FC00D28
S1130CF0D11DB09FD00DFF93EF93BB24AA24992755
S1130D00008111811595079568817981759567959D
S1130D10A801061B170B460F571F419351932081BF
S1130D203181359527956A817B8175956795A901F0
S1130D30261B370B460F571F419351930F01EEE4C7
S1130D40F6E0EA0DFB1D4591559165917591F00111
S1130D50950320010C031001491E9C03590A300C11
S1130D60411C591ED803590A300C411C591EB703A3
S1130D7040012E033001891EBE03990A700C811CA8
S1130D80991EFA03990A700C811C991E260C371CB3
S1130D90481C591C49925992B50320012C03100197
S1130DA0491EBC03590A300C411C591EDA03590A66
S1130DB0300C411C591E970340010E033001891E5B
S1130DC09E03990A700C811C991EF803990A700CF1
S1130DD0811C991E261837084808590849925992C7
S1130DE0AC0CBD1CB2FE8CCF04E0A09FC00DD11D85
S1130DF0E00DF11DB09FD00DF00D81E0E81AF90A65
S1130E0009F07BCFEF91FF918F919F91880F991FEC
S1130E10B695A795109609F060CFCF91DF910F9109
S1130E201F91EF90FF90CF90DF90AF90BF908F9085
S1130E309F906F907F904F905F902F903F90089578
S1130E403F922F925F924F927F926F929F928F92D6
S1130E50BF92AF921F930F93DF93CF935C01EB018B
S1130E60EEE4FAE0992700E011E0A591B591AA0D0E
S1130E70BB1D2D913D914D915D91B30320012A033A
S1130E801001491EBA03590A300C411C591EBA03F9
S1130E90590A300C411C591ED50340014C03300142
S1130EA0891EDC03990A700C811C991EDC03990AC3
S1130EB0700C811C991E260C371C481C591C662476
S1130EC077248824992421E030E04427552770E1D1
S1130ED0220C331C441C551C661C771C881C991C52
S1130EE0220C331C441C551C661C771C881C991C42
S1130EF02AF4620E731E841E951E04C0621A730ABD
S1130F00840A950A220F331F441F287F256097FC0B
S1130F1022507A95E9F64695379527954695379563
S1130F202795299339930150104009F09ECFCF9112
S1130F30DF910F911F91AF90BF908F909F906F9012
S1130F407F904F905F902F903F9011240895AC01B3
S1130F509927D703F0014E03D001E91FDE03F90BF3
S1130F60B00DE11DF91FFC03F90BB00DE11DF91FD4
S1130F70CF0111240895EFE3FFE13197F1F700C0A9
S1130F800000982F907F95BB95B39E7F95BB95B33A
S1130F909D7F95BBF5E0FA95F1F7000095B3946059
S1130FA095BB25E02A95F1F7000095B39B7F95BB8F
S1130FB0E0E18E9FC001112485BB85B38E7F85BB84
S1130FC085B38D7F85BBF5E0FA95F1F7000085B315
S1130FD0846085BB25E02A95F1F7000085B38B7FFB
S1130FE085BB08958FEF84BB85B38B7F85BB8FE56D
S1130FF09AEE0197F1F700C0000080E2BCDF8FE1B8
S11310009EE40197F1F700C0000080E2B4DF8FE8AE
S113101091E00197F1F700C0000080E2ACDF88E2C4
S1131020AADF86E0A8DF81E0A6DF8CE0A4CF0895E4
S1131030EFE3FFE13197F1F700C00000982F907FB4
S113104095BB95B3916095BB95B39D7F95BBF5E03A
S1131050FA95F1F7000095B3946095BB25E02A95C5
S1131060F1F7000095B39B7F95BBE0E18E9FC00133
S1131070112485BB85B3816085BB85B38D7F85BB1A
S1131080F5E0FA95F1F7000085B3846085BB25E0AF
S11310902A95F1F7000085B38B7F85BB08951F93D4
S11310A0CF93DF93EC01162F613011F482E063DFFC
S11310B0123029F480EC5FDF02C02196B9DF888109
S11310C08111FBCFDF91CF911F91089581E053CF20
S11310D008951F920F920FB60F9211242F938F939E
S11310E09F9380911F01909120010196909320017C
S11310F080931F0186E082BF80911F01909120019F
S1131100893E934038F081E080931C0110922001C5
S113111010921F019F918F912F910F900FBE0F90EE
S11311201F9018951F920F920FB60F9211248F9350
S11311309F9380911D0190911E01019690931E0131
S113114080931D019F918F910F900FBE0F901F9060
S113115018951F920F920FB60F9211248F939F939D
S113116084B195B190932201809321019F918F9135
S11311700F900FBE0F901F901895FC0187E687B95A
S113118001C0FC0187EF86B9349BFECFCF010296E4
S113119024B135B13058318320836150710989F706
S11311A016B80895CF93DF93CDB7DEB7C054D109F5
S11311B00FB6F894DEBF0FBECDBF8CE0E0E0F1E0E7
S11311C0DE01119601900D928A95E1F78CE0ECE036
S11311D0F1E0DE011D9601900D928A95E1F783B747
S11311E0886483BF83B7806283BF83B7846083BF0F
S11311F08FEF8ABB80EF87BB87B7816087BF84E0AE
S113120083BF86E082BFEAE6F0E08081826080836B
S113121089B7816089BF87E687B987EE86B98AB1C5
S113122088618AB98AB180688AB9E5E9F0E0808189
S11312308660808389E189B988E180939A00EDE929
S1131240F0E080818660808383E0809399007894C5
S1131250C9DE06E010E080911D0190911E01892BEA
S113126021F461E0CE010D961ADF60E072E083E3C1
S11312709BE083DF63E271E083E39BE0E8DC83E2ED
S113128091E014DD63E379E083E291E0D9DD86E067
S113129090E02AC0FC01EE0FFF1FED5CF64F2081A9
S11312A031812B30310538F4FC01EE0FFF1FED5C6A
S11312B0F64F11821082FC01EE0FFF1FED5CF64F1A
S11312C020813181A901415051094F3C574058F4C4
S11312D0F801EE0FFF1FED5CF64F4081518142177C
S11312E0530708F48C0101968F3F910599F290F20F
S11312F0580181E0A81AB108F501EE0FFF1FED5C5B
S1131300F64F60817181F801EE0FFF1FED5CF64F1F
S113131080819181680F791F68019FEFC91AD90AEA
S1131320F601EE0FFF1FED5CF64F80819181680F8F
S1131330791F80E090E0E2D52B013C01E12CF12CF7
S113134022C0F701E00FF11F3197EE0FFF1FED5C94
S1131350F64F6081718180E090E0D0D5A3019201C5
S113136039D5F701EE0FFF1FEE0FFF1F21E030E02C
S11313702C0F3D1FE20FF31F60A771A782A793A74D
S11313803FEFE31AF30A43E0E416F104D4F249A46C
S11313905AA46BA47CA4B50180E090E0AFD5A3016E
S11313A0920162D620E030E048E152E45DD64B0180
S11313B05C014DA45EA46FA478A8B80180E090E01D
S11313C09DD5A301920150D620E030E048E152E4DB
S11313D04BD69B01AC01C501B40194D42B013C0153
S11313E089A89AA8ABA8BCA8B60180E090E086D5ED
S11313F0A501940139D620E030E048E152E434D626
S11314009B01AC01C301B2017DD44CD56B017C01BD
S11314105B0180911D0190911E01019709F0CBC1E0
S113142061E0CE0101963BDE80E090E001C00196D0
S11314308F3F9105E1F3D8F380911C01813009F0CD
S1131440E8C083E790E09EAB8DAB96013695279577
S11314503695279536952795A5ECB0E20E9485151B
S1131460AC01529542954F7045275F7045279A010C
S1131470ADECBCEC0E94851596958795969587955D
S1131480969587959C01220F331F880F991F880F0B
S1131490991F880F991F820F931F9A01281B390BDC
S11314A0C901C09698AF8FAB9601369527953695AE
S11314B02795ABE7B4E10E948515AC015695479595
S11314C09A01ADECBCEC0E9485159695879596958E
S11314D08795969587959C01220F331F880F991F36
S11314E0880F991F880F991F820F931F9A01281B39
S11314F0390BC901C0969AAF89AF96010E94851530
S1131500AC015695479556954795569547959A013A
S11315100E948515969587959695879596958795B6
S11315209C01220F331F880F991F880F991F880F62
S1131530991F820F931F9A01281B390BC901C0966A
S11315409CAF8BAFCA01880F991F440F551F440FDE
S1131550551F440F551F840F951FA601481B590B97
S1131560CA01C0969EAF8DAF85E690E021969FAFED
S11315708EAF219758EEA51653E0B50620F480E20D
S113158090E098AF8FAB64E6A616B10420F480E235
S113159090E09AAF89AF8AE0A816B10420F480E203
S11315A090E09CAF8BAFAB2821F480E390E09EAF3A
S11315B08DAF80E090E015C09C012F5F3F4FF90193
S11315C0EE0FFF1F41E050E04C0F5D1FE40FF51FCD
S11315D044A9E9E1F0E0EC0FFD1FE80FF91F408397
S11315E0C9018430910544F388E48D8F8AE78E8F96
S11315F086E090E009C0E9E1F0E0EC0FFD1FE80FA0
S1131600F91F20E22083019680319105A4F3109202
S11316101C01D0921901C0921801C601D9D090932F
S11316201B0180931A0162E0CE01499638DD1BBA92
S113163018BA80911A0190911B018130910561F4CF
S113164081E08BBB5FEF69E688E1515060408040E8
S1131650E1F700C00000AFC08230910561F480E87A
S11316608BBB9FEF29E638E1915020403040E1F7F1
S113167000C00000A0C08330910561F482E08BBB00
S11316804FEF59E668E1415050406040E1F700C037
S1131690000091C08430910561F480E188BB8FEF34
S11316A099E628E1815090402040E1F700C0000015
S11316B082C08530910561F484E08BBB3FEF49E63D
S11316C058E1315040405040E1F700C0000073C081
S11316D08630910561F488E08BBB6FEF89E698E171
S11316E0615080409040E1F700C0000064C0873042
S11316F0910561F480E288BB2FEF39E648E121507F
S113170030404040E1F700C0000055C088309105EA
S113171061F480E18BBB5FEF69E688E15150604082
S11317208040E1F700C0000046C08930910561F4B3
S113173080E488BB9FEF29E638E191502040304097
S1131740E1F700C0000037C08A30910561F480E2FF
S11317508BBB4FEF59E668E1415050406040E1F7E0
S113176000C0000028C08B30910561F480E888BB7C
S11317708FEF99E628E1815090402040E1F700C0C6
S1131780000019C00C9761F480E48BBB3FEF49E67D
S113179058E1315040405040E1F700C000000BC018
S11317A01BBA18BA6FEF89E698E161508040904007
S11317B0E1F700C0000080911D0190911E01039784
S11317C008F449CD10921E0110921D017FDC43CD17
S11317D08F929F92AF92BF92CF92DF92EF92FF923D
S11317E0BC01990F880B990B8BD36B017C012EEAFA
S11317F037E44EEF51E434D4181674F42DEC3CE481
S11318004EE752E4C701B601E1D288232CF41092CA
S1131810340F1092330FAEC02EEA37E44EE752E491
S1131820C701B6011DD4181684F42DEC3CE44EEF28
S113183052E4C701B601CAD288233CF481E090E0A7
S11318409093340F8093330F95C02EEA37E44EEF14
S113185052E4C701B60104D4181684F42DEC3CE418
S11318604EE753E4C701B601B1D288233CF482E0C9
S113187090E09093340F8093330F7CC02EEA37E4CA
S11318804EE753E4C701B601EBD3181684F42DECEC
S11318903CE44EEF53E4C701B60198D288233CF4EC
S11318A083E090E09093340F8093330F63C02EEA6B
S11318B037E44EEF53E4C701B601D2D3181684F4CB
S11318C02DEC3CE44EE754E4C701B6017FD28823F3
S11318D03CF484E090E09093340F8093330F4AC03B
S11318E02EEA37E44EE754E4C701B601B9D318161B
S11318F084F42DEC3CE44EEF54E4C701B60166D207
S113190088233CF485E090E09093340F8093330F68
S113191031C02EEA37E44EEF54E4C701B601A0D338
S1131920181684F42DEC3CE44EE755E4C701B601E7
S11319304DD288233CF486E090E09093340F80935A
S1131940330F18C02EEA37E44EE755E4C701B60159
S113195087D318167CF42DEC3CE44EEF55E4C70114
S1131960B60134D2882334F487E090E09093340FA6
S11319708093330F6091330F7091340F072E000C56
S1131980880B990BBDD29B01AC0160E070E080E054
S113199090E4CDD34B015C012EEA37E44EEF51E4E1
S11319A063D39B01AC01C701B6015AD31816ACF43A
S11319B023E333EB46E052E4C501B40155D39B0164
S11319C0AC01C701B60102D288233CF481E090E067
S11319D090931B0180931A0187C123E333EB46E004
S11319E052E4C501B40140D39B01AC01C701B60167
S11319F037D31816ACF422E538EB4EE052E4C501B7
S1131A00B40132D39B01AC01C701B601DFD18823F5
S1131A103CF482E090E090931B0180931A0164C12E
S1131A2022E538EB4EE052E4C501B4011DD39B011D
S1131A30AC01C701B60114D31816ACF423E333E3A5
S1131A4047E152E4C501B4010FD39B01AC01C701C6
S1131A50B601BCD188233CF483E090E090931B0151
S1131A6080931A0141C123E333E347E152E4C50102
S1131A70B401FAD29B01AC01C701B601F1D2181628
S1131A80ACF424E13EE240E252E4C501B401ECD2FC
S1131A909B01AC01C701B60199D188233CF484E0D1
S1131AA090E090931B0180931A011EC124E13EE251
S1131AB040E252E4C501B401D7D29B01AC01C70195
S1131AC0B601CED21816ACF423E333EB49E252E468
S1131AD0C501B401C9D29B01AC01C701B60176D1DD
S1131AE088233CF485E090E090931B0180931A01D5
S1131AF0FBC023E333EB49E252E4C501B401B4D2A1
S1131B009B01AC01C701B601ABD21816ACF42DECA5
S1131B103CEC43E352E4C501B401A6D29B01AC0101
S1131B20C701B60153D188233CF486E090E090933A
S1131B301B0180931A01D8C02DEC3CEC43E352E422
S1131B40C501B40191D29B01AC01C701B60188D291
S1131B501816ACF420E030E84EE352E4C501B401B9
S1131B6083D29B01AC01C701B60130D188233CF478
S1131B7087E090E090931B0180931A01B5C020E0A8
S1131B8030E84EE352E4C501B4016ED29B01AC01CE
S1131B90C701B60165D21816ACF42CEE31ED49E458
S1131BA052E4C501B40160D29B01AC01C701B60186
S1131BB00DD188233CF488E090E090931B0180933E
S1131BC01A0192C02CEE31ED49E452E4C501B4018E
S1131BD04BD29B01AC01C701B60142D21816ACF43A
S1131BE02CEE31ED45E552E4C501B4013DD29B0133
S1131BF0AC01C701B601EAD088233CF489E090E047
S1131C0090931B0180931A016FC02CEE31ED45E5D2
S1131C1052E4C501B40128D29B01AC01C701B6014D
S1131C201FD21816ACF42DE33AE842E652E4C5019B
S1131C30B4011AD29B01AC01C701B601C7D08823F5
S1131C403CF48AE090E090931B0180931A014CC00D
S1131C502DE33AE842E652E4C501B40105D29B0102
S1131C60AC01C701B601FCD11816ACF42FE135E084
S1131C7040E752E4C501B401F7D19B01AC01C701AF
S1131C80B601A4D088233CF48BE090E090931B0130
S1131C9080931A0129C02FE135E040E752E4C501E1
S1131CA0B401E2D19B01AC01C701B601D9D1181628
S1131CB0ACF42DEC3CE44EE752E4C501B401D4D1BC
S1131CC09B01AC01C701B60181D088233CF48CE0B0
S1131CD090E090931B0180931A0106C08DE090E080
S1131CE090931B0180931A0180911A0190911B011A
S1131CF0FF90EF90DF90CF90BF90AF909F908F9028
S1131D0008955058BB27AA270ED070C161D130F076
S1131D1066D120F031F49F3F11F41EF456C10EF445
S1131D20E095E7FB4CC1E92F72D180F3BA17620743
S1131D3073078407950718F071F49EF58AC10EF4B1
S1131D40E0950B2EBA2FA02D0B01B90190010C01C7
S1131D50CA01A0011124FF27591B99F0593F50F4DF
S1131D60503E68F11A16F040A22F232F342F442737
S1131D70585FF3CF469537952795A795F04053952F
S1131D80C9F77EF41F16BA0B620B730B840BBAF0FF
S1131D909150A1F0FF0FBB1F661F771F881FC2F76A
S1131DA00EC0BA0F621F731F841F48F4879577957E
S1131DB06795B795F7959E3F08F0B3CF9395880F35
S1131DC008F09927EE0F979587950895D4D008F4D5
S1131DD081E008950CD00AC102D140F0F9D030F06E
S1131DE021F45F3F19F0EBC0511134C1EEC00FD1A3
S1131DF098F39923C9F35523B1F3951B550BBB27CE
S1131E00AA2762177307840738F09F5F5F4F220F7A
S1131E10331F441FAA1FA9F333D00E2E3AF0E0E873
S1131E2030D091505040E695001CCAF729D0FE2FBF
S1131E3027D0660F771F881FBB1F26173707480751
S1131E40AB07B0E809F0BB0B802DBF01FF27935807
S1131E505F4F2AF09E3F510568F0B1C0FBC05F3F61
S1131E60ECF3983EDCF3869577956795B795F795EF
S1131E709F5FC9F7880F911D9695879597F90895E7
S1131E80E1E0660F771F881FBB1F62177307840783
S1131E90BA0720F0621B730B840BBA0BEE1F88F792
S1131EA0E0950895BCD088F09F5790F0B92F9927FA
S1131EB0B751A0F0D1F0660F771F881F991F1AF051
S1131EC0BA95C9F712C0B13081F0C3D0B1E008951A
S1131ED0C0C0672F782F8827B85F39F0B93FCCF39B
S1131EE0869577956795B395D9F73EF49095809547
S1131EF0709561957F4F8F4F9F4F0895E89409C067
S1131F0097FB3EF490958095709561957F4F8F4F28
S1131F109F4F9923A9F0F92F96E9BB279395F6953E
S1131F20879577956795B795F111F8CFFAF4BB0FBC
S1131F3011F460FF1BC06F5F7F4F8F4F9F4F16C020
S1131F40882311F096E911C0772321F09EE8872FAA
S1131F50762F05C0662371F096E8862F70E060E066
S1131F602AF09A95660F771F881FDAF7880F9695DF
S1131F70879597F90895990F0008550FAA0BE0E883
S1131F80FEEF16161706E807F907C0F01216130637
S1131F90E407F50798F0621B730B840B950B39F477
S1131FA00A2661F0232B242B252B21F408950A26DD
S1131FB009F4A140A6958FEF811D811D089597F91D
S1131FC09F6780E870E060E008959FEF80EC0895DB
S1131FD000240A9416161706180609060895002404
S1131FE00A9412161306140605060895092E03947E
S1131FF0000C11F4882352F0BB0F40F4BF2B11F4F2
S113200060FF04C06F5F7F4F8F4F9F4F089557FD50
S11320109058440F551F59F05F3F71F04795880F52
S113202097FB991F61F09F3F79F0879508951216E9
S113203013061406551FF2CF4695F1DF08C0161695
S113204017061806991FF1CF869571056105089446
S11320500895E894BB2766277727CB0197F908955D
S11320608ADF08F48FEF08950BD0C0CFB1DF28F0DA
S1132070B6DF18F0952309F0A2CFA7CF1124EACF39
S1132080C6DFA0F3959FD1F3950F50E0551F629FD3
S1132090F001729FBB27F00DB11D639FAA27F00DBD
S11320A0B11DAA1F649F6627B00DA11D661F829FE4
S11320B02227B00DA11D621F739FB00DA11D621FC9
S11320C0839FA00D611D221F749F3327A00D611DE6
S11320D0231F849F600D211D822F762F6A2F1124C8
S11320E09F5750408AF0E1F088234AF0EE0FFF1F1B
S11320F0BB1F661F771F881F91505040A9F79E3F52
S1132100510570F05CCFA6CF5F3FECF3983EDCF353
S1132110869577956795B795F795E7959F5FC1F78E
S1132120FE2B880F911D9695879597F90895FA01CE
S1132130EE0FFF1F30962105310599F161157105E8
S113214061F48038BFE39B0749F1689490388105B6
S113215061F08038BFEF9B0741F0992342F5FF3FC0
S1132160E1053105210511F1E8940894E795D901B9
S1132170AA2329F4AB2FBE2FF85FD0F310C0FF5F62
S113218070F4A695E0F7F73950F019F0FF3A38F4F7
S11321909F779F930CD00F9007FC905808953EF0C2
S11321A014CF60E070E080E89FE308954FE79F77E5
S11321B05F934F933F932F939ED02F913F914F91D5
S11321C05F9152DF05C019F40EF0F9CE42CFFDCE77
S11321D026DFC8F39638C0F707F80F92E8942BE38C
S11321E03AEA48EB5FE74EDF0F920F920F924DB73A
S11321F05EB70F92C0D0ECE8F0E016D04F915F913B
S1132200EF91FF91E595EE1FFF1F49F0FE57E0683F
S11322104427EE0F441FFA95E1F74195550B32D050
S11322200F9007FE26C00895DF93CF931F930F935B
S1132230FF92EF92DF927B018C01689405C0DA2E45
S1132240EF011EDFFE01E894A5912591359145919A
S11322505591AEF3EF0167DDFE019701A801DA9411
S113226079F7DF90EF90FF900F911F91CF91DF915D
S113227008959B01AC0160E070E080E89FE3AACD83
S11322809ECEACC0CCDEE8F39923D9F3940F511D54
S1132290BBF39150504094F059F0882332F0660F0C
S11322A0771F881F91505040C1F79E3F510544F756
S11322B0880F911D9695879597F908955F3FACF027
S11322C0983E9CF0BB27869577956795B79508F45B
S11322D0B1609395C1F7BB0F58F711F460FFE8CFD5
S11322E06F5F7F4F8F4F9F4FE3CFB4CE0EF076C01A
S11322F06CCE689464CE93DEC8F39923D1F3C6F30D
S1132300DF93CF931F930F93FF92C92FDD27882369
S11323102AF02197660F771F881FDAF720E030E054
S113232040E85FEB9FE3883920F0803E30F021964F
S11323308F77E8DCE4EBF0E003C0E4DCE1EEF0E00E
S113234073DF8B01BE01EC01FB2E6F57710975958C
S1132350771F880B990BD4DD28E132E741E35FE373
S11323608FDEAF2D9801AE01FF900F911F91CF9199
S1132370DF91D9DC3BCEFA01DC01AA0FBB1F9B0124
S1132380AC01BF5728F422273327442750781FC0B5
S1132390B75188F4AB2F0024469537952795011C37
S11323A0A395D2F3002069F0220F331F441FB39585
S11323B0DAF30DD0A6CC61307105A0E88A07B946DE
S11323C030F49B01AC0166277727882790783096F4
S11323D021F0208331834283538308959F3F31F05A
S11323E0915020F4879577956795B795880F911D3F
S11323F09695879597F908952F923F924F925F9201
S11324006F927F928F929F92AF92BF92CF92DF9200
S1132410EF92FF920F931F93CF93DF93CDB7DEB765
S113242060970FB6F894DEBF0FBECDBF7C011B01D1
S11324306A01FC0117821682838181FF2AC39E01EF
S11324402F5F3F4F3901F7019381F10193FD85918E
S113245093FF81911F01882309F417C3853239F44E
S113246093FD859193FF81911F01853231F4B7016A
S113247090E048D456016501E6CF10E0512C912C30
S1132480FFE1F915D8F08B3279F038F4803279F025
S11324908332A1F4F92DF0612EC08D3261F08033C6
S11324A069F4292D21602DC0392D3260932E892D98
S11324B08460982E2AC0E92DE86015C097FC2DC0D1
S11324C020ED280F2A3088F496FE06C03AE0139FC8
S11324D0200D1124122F19C08AE0589E200D1124BA
S11324E0522EE92DE0629E2E10C08E3231F496FCFD
S11324F0CCC2F92DF0649F2E08C08C3621F4292D0E
S11325002068922E02C0883641F4F10193FD859132
S113251093FF81911F018111B3CF9BEB980F9330EF
S113252020F4992D9061805E07C09BE9980F933049
S113253008F059C1992D9F7E96FF16E09F73992E3E
S1132540853619F49064992E08C0863621F4392F03
S11325503068932E02C01111115097FE07C01C332E
S113256050F444244394410E27E00BC0183038F053
S113257027E017E005C027E09CE3492E02C0212F85
S1132580412C560184E0A80EB11CF60160817181D2
S113259082819381042DA301C7D26C01F981FC8748
S11325A0F0FF02C0F3FF06C091FC06C092FE06C015
S11325B000E205C00DE203C00BE201C000E08C851F
S11325C08C7019F0011143C280C297FE10C04C0CEC
S11325D0FC85F4FF04C08A81813309F44A941414FD
S11325E074F528E0241578F588E0482E2CC096FC74
S11325F02AC0812F90E08C159D059CF03CEFC316FA
S11326003FEFD30674F0892D8068982E0AC0E2E06B
S1132610F0E0EC0FFD1FE10FF11D8081803319F410
S113262011501111F4CF97FE0EC044244394410E6F
S1132630812F90E0C816D9062CF41C1904C0442438
S1132640439401C010E097FE06C01C141D0434F42A
S1132650C601019605C085E090E002C081E090E0EB
S113266001110196112331F0212F30E02F5F3F4FEC
S1132670820F931F252D30E08217930714F4581A04
S113268001C0512C892D897041F4552031F0B701D6
S113269080E290E037D35A94F8CF002321F0B701B9
S11326A0802F90E02FD393FC08C0552031F0B70160
S11326B080E390E027D35A94F8CF97FE4AC04601AE
S11326C0D7FE02C0812C912CC60188199909F30107
S11326D0E80FF91FFE87ED87960124193109388B1D
S11326E02F87012F10E01195019511093FEF8316F3
S11326F0930621F4B7018EE290E004D3C814D90400
S11327004CF08F8598898815990524F4ED85FE850C
S1132710818101C080E3F1E08F1A91082D853E8507
S11327202F5F3F4F3E872D878016910624F0B70117
S113273090E0E8D2DBCFC814D90441F49A819633EF
S113274020F4953319F43C8534FF81E3B70190E01C
S113275048C08A81813319F09C859F7E9C87B7018C
S113276090E0D0D2111105C094FC16C085E690E02B
S113277015C0B7018EE290E0C5D21E5F82E001E091
S1132780080FF301E80FF11D8081B70190E0BAD280
S1132790802F0113F4CFE8CF85E490E0B701B2D2E3
S11327A0D7FC06C0C114D10441F4EC85E4FF05C094
S11327B0D194C194D1088DE201C08BE2B70190E0BD
S11327C0A1D280E32AE0C216D1042CF08F5FFAE094
S11327D0CF1AD108F7CFB70190E094D2B701C60160
S11327E0C09690D249C1833631F0833779F083356E
S11327F009F052C01FC0560132E0A30EB11CF6010D
S11328008081898301E010E0630111C05601F2E088
S1132810AF0EB11CF601C080D18096FE03C0612FBB
S113282070E002C06FEF7FEFC60161D28C01F92D19
S1132830FF7713C0560122E0A20EB11CF601C0803E
S1132840D18096FE03C0612F70E002C06FEF7FEF6E
S1132850C60142D28C01F92DF0689F2EF3FD18C0F9
S1132860852D90E00817190798F4B70180E290E0ED
S113287049D25A94F5CFF60197FC859197FE819140
S11328806F01B70190E03ED251105A9401501109E2
S11328900115110581F7F0C0843611F0893659F518
S11328A0560197FE09C024E0A20EB11CF601608116
S11328B07181828193810AC0F2E0AF0EB11CF601EE
S11328C060817181072E000C880B990BF92DFF761E
S11328D09F2E97FF09C090958095709561957F4FC5
S11328E08F4F9F4FF0689F2E2AE030E0A30146D21D
S11328F0C82EC6183EC0092D853721F40F7E2AE064
S113290030E01DC0097F8F3691F018F4883559F0F6
S1132910BCC0803719F0883711F0B7C0006104FFDC
S113292009C0046007C094FE08C0066006C028E021
S113293030E005C020E130E002C020E132E0560181
S113294007FF09C084E0A80EB11CF6016081718103
S11329508281938108C0F2E0AF0EB11CF601608160
S1132960718180E090E0A30109D2C82EC6180F77C8
S1132970902E96FE0BC0092D0E7FC11650F494FEC6
S11329800AC092FC08C0092D0E7E05C0DC2C092D5E
S113299003C0DC2C01C0D12E04FF0DC0FE01EC0DE0
S11329A0F11D8081803311F4097E09C002FF06C045
S11329B0D394D39404C0802F867809F0D39403FD74
S11329C010C000FF06C01C2DD51478F4150D1D1978
S11329D00CC0D51450F4B70180E290E093D1D394A5
S11329E0F8CFD51410F45D1801C0512C04FF0FC0AA
S11329F0B70180E390E086D102FF16C001FD03C059
S1132A0088E790E002C088E590E0B7010CC0802F11
S1132A10867851F001FF02C08BE201C080E207FD1D
S1132A208DE2B70190E06ED1C11630F4B70180E3B6
S1132A3090E068D11150F8CFCA94F301EC0DF11D68
S1132A408081B70190E05ED1C110F6CF15C0F4E0EB
S1132A50F51550F584E0581A93FE1EC0011125C0E7
S1132A602C8523FF27C00EE011E0392D3071932E01
S1132A70F8018491811121C0552009F4FCCCB701DF
S1132A8080E290E03FD15A94F7CFF7018681978195
S1132A9023C08FEF9FEF20C0B70180E290E032D1D6
S1132AA05A945110F9CFDACF512CB701802F90E00E
S1132AB029D1D6CF02E111E0D8CF91108052B701CD
S1132AC090E020D10F5F1F4FD3CF23E0251510F4E2
S1132AD083E0C1CF512CC4CF60960FB6F894DEBF0B
S1132AE00FBECDBFDF91CF911F910F91FF90EF905B
S1132AF0DF90CF90BF90AF909F908F907F906F901A
S1132B005F904F903F902F900895A29FB001B39F84
S1132B10C001A39F700D811D1124911DB29F700DE2
S1132B20811D1124911D0895283008F027E03327D2
S1132B30DA01990F311D87FD9160009661057105D9
S1132B4039F432602E5F3D9330E32A95E1F708951E
S1132B509F3F30F080387105610509F03C5F3C5FB0
S1132B603D93913008F08068911DDF93CF931F93BC
S1132B700F93FF92EF92192F987F9695E92F9695D0
S1132B809695E90FFF27E059FE4F99273327EE2446
S1132B90FF24A701E70105900894079428F4360F51
S1132BA0E71EF81E491F511D660F771F881F991FC6
S1132BB00694A1F70590079428F4E70EF81E491F20
S1132BC0561FC11D770F881F991F661F0694A1F712
S1132BD00590079428F4F80E491F561FC71FD11DEE
S1132BE0880F991F661F771F0694A1F70590079415
S1132BF020F4490F561FC71FD81F990F661F771F50
S1132C00881F0694A9F784911095177041F0D69502
S1132C10C79557954795F794E7941A95C1F7E6E158
S1132C20F1E0689415901591359165919591059011
S1132C307FE27395E118F10A430B560BC90BD009D7
S1132C40C0F7E10CF11E431F561FC91FD01D7EF4AF
S1132C50703311F48A95E6CFE894015030F0080FF0
S1132C600AF40027021708F4202F2395022F7A3341
S1132C7028F079E37D932A95E9F710C07D932A958E
S1132C8089F6069497956795379517951794E118E3
S1132C90F10A430B560BC90BD00998F023957E918A
S1132CA073957A3308F070E37C932013B8F77E9120
S1132CB070617D9330F0839571E37D9370E32A9581
S1132CC0E1F71124EF90FF900F911F91CF91DF91C5
S1132CD0992787FD90950895FC01059061507040F7
S1132CE00110D8F7809590958E0F9F1F0895FC01D1
S1132CF06150704001900110D8F7809590958E0F27
S1132D009F1F08950F931F93CF93DF93FB0123819C
S1132D1021FD03C08FEF9FEF2CC022FF16C0468118
S1132D205781248135814217530744F4A081B1812E
S1132D309D012F5F3F4F318320838C932681378100
S1132D402F5F3F4F3783268314C08B01EC01FB01B7
S1132D500084F185E02D0995892BE1F6D8011696BA
S1132D608D919C911797019617969C938E93169725
S1132D70CE01DF91CF911F910F910895FA01AA27F7
S1132D80283051F1203181F1E8946F936E7F6E5FAA
S1132D907F4F8F4F9F4FAF4FB1E03ED0B4E03CD058
S1132DA0670F781F891F9A1FA11D680F791F8A1F3B
S1132DB0911DA11D6A0F711D811D911DA11D20D0A2
S1132DC009F468943F912AE0269F11243019305D5C
S1132DD03193DEF6CF010895462F4770405D41934D
S1132DE0B3E00FD0C9F7F6CF462F4F70405D4A339A
S1132DF018F0495D31FD4052419302D0A9F7EACF62
S1132E00B4E0A6959795879577956795BA95C9F790
S1132E1000976105710508959B01AC010A2E069483
S1132E205795479537952795BA95C9F7620F731F3C
S10F2E30841F951FA01D0895F894FFCF87
S1132E3C52554E4E494E47204646540053544F501B
S10B2E4C20202020464654001A
S9030000FC
